{
  "contractName": "Voter",
  "abi": [
    {
      "inputs": [
        {
          "internalType": "string[]",
          "name": "_options",
          "type": "string[]"
        }
      ],
      "stateMutability": "nonpayable",
      "type": "constructor"
    },
    {
      "inputs": [
        {
          "internalType": "uint256",
          "name": "",
          "type": "uint256"
        }
      ],
      "name": "options",
      "outputs": [
        {
          "internalType": "string",
          "name": "",
          "type": "string"
        }
      ],
      "stateMutability": "view",
      "type": "function"
    },
    {
      "inputs": [
        {
          "internalType": "uint256",
          "name": "",
          "type": "uint256"
        }
      ],
      "name": "votes",
      "outputs": [
        {
          "internalType": "uint256",
          "name": "",
          "type": "uint256"
        }
      ],
      "stateMutability": "view",
      "type": "function"
    },
    {
      "inputs": [
        {
          "internalType": "uint256",
          "name": "option",
          "type": "uint256"
        }
      ],
      "name": "vote",
      "outputs": [],
      "stateMutability": "nonpayable",
      "type": "function"
    },
    {
      "inputs": [
        {
          "internalType": "string",
          "name": "option",
          "type": "string"
        }
      ],
      "name": "vote",
      "outputs": [],
      "stateMutability": "nonpayable",
      "type": "function"
    },
    {
      "inputs": [],
      "name": "getOptions",
      "outputs": [
        {
          "internalType": "string[]",
          "name": "",
          "type": "string[]"
        }
      ],
      "stateMutability": "view",
      "type": "function"
    },
    {
      "inputs": [],
      "name": "getVotes",
      "outputs": [
        {
          "internalType": "uint256[]",
          "name": "",
          "type": "uint256[]"
        }
      ],
      "stateMutability": "view",
      "type": "function"
    }
  ],
  "bytecode": "0x60806040523480156200001157600080fd5b50604051620014a0380380620014a0833981810160405281019062000037919062000493565b80600190805190602001906200004f929190620001b8565b50805167ffffffffffffffff81111562000092577f4e487b7100000000000000000000000000000000000000000000000000000000600052604160045260246000fd5b604051908082528060200260200182016040528015620000c15781602001602082028036833780820191505090505b5060009080519060200190620000d99291906200021f565b5060005b600180549050811015620001b057600060405180604001604052808381526020016001151581525090508060036001848154811062000145577f4e487b7100000000000000000000000000000000000000000000000000000000600052603260045260246000fd5b906000526020600020016040516200015e919062000563565b90815260200160405180910390206000820151816000015560208201518160010160006101000a81548160ff021916908315150217905550905050508080620001a790620006a8565b915050620000dd565b505062000783565b8280548282559060005260206000209081019282156200020c579160200282015b828111156200020b578251829080519060200190620001fa92919062000271565b5091602001919060010190620001d9565b5b5090506200021b919062000302565b5090565b8280548282559060005260206000209081019282156200025e579160200282015b828111156200025d57825182559160200191906001019062000240565b5b5090506200026d91906200032a565b5090565b8280546200027f9062000672565b90600052602060002090601f016020900481019282620002a35760008555620002ef565b82601f10620002be57805160ff1916838001178555620002ef565b82800160010185558215620002ef579182015b82811115620002ee578251825591602001919060010190620002d1565b5b509050620002fe91906200032a565b5090565b5b808211156200032657600081816200031c919062000349565b5060010162000303565b5090565b5b80821115620003455760008160009055506001016200032b565b5090565b508054620003579062000672565b6000825580601f106200036b57506200038c565b601f0160209004906000526020600020908101906200038b91906200032a565b5b50565b6000620003a6620003a084620005b0565b6200057c565b9050808382526020820190508260005b85811015620003ea5781518501620003cf888262000466565b845260208401935060208301925050600181019050620003b6565b5050509392505050565b60006200040b6200040584620005df565b6200057c565b9050828152602081018484840111156200042457600080fd5b620004318482856200063c565b509392505050565b600082601f8301126200044b57600080fd5b81516200045d8482602086016200038f565b91505092915050565b600082601f8301126200047857600080fd5b81516200048a848260208601620003f4565b91505092915050565b600060208284031215620004a657600080fd5b600082015167ffffffffffffffff811115620004c157600080fd5b620004cf8482850162000439565b91505092915050565b60008154620004e78162000672565b620004f3818662000627565b9450600182166000811462000511576001811462000523576200055a565b60ff198316865281860193506200055a565b6200052e8562000612565b60005b83811015620005525781548189015260018201915060208101905062000531565b838801955050505b50505092915050565b6000620005718284620004d8565b915081905092915050565b6000604051905081810181811067ffffffffffffffff82111715620005a657620005a562000754565b5b8060405250919050565b600067ffffffffffffffff821115620005ce57620005cd62000754565b5b602082029050602081019050919050565b600067ffffffffffffffff821115620005fd57620005fc62000754565b5b601f19601f8301169050602081019050919050565b60008190508160005260206000209050919050565b600081905092915050565b6000819050919050565b60005b838110156200065c5780820151818401526020810190506200063f565b838111156200066c576000848401525b50505050565b600060028204905060018216806200068b57607f821691505b60208210811415620006a257620006a162000725565b5b50919050565b6000620006b58262000632565b91507fffffffffffffffffffffffffffffffffffffffffffffffffffffffffffffffff821415620006eb57620006ea620006f6565b5b600182019050919050565b7f4e487b7100000000000000000000000000000000000000000000000000000000600052601160045260246000fd5b7f4e487b7100000000000000000000000000000000000000000000000000000000600052602260045260246000fd5b7f4e487b7100000000000000000000000000000000000000000000000000000000600052604160045260246000fd5b610d0d80620007936000396000f3fe608060405234801561001057600080fd5b50600436106100625760003560e01c80630121b93f146100675780630dc9601514610083578063409e2205146100a15780635df81330146100d1578063cc2ee19614610101578063fc36e15b1461011f575b600080fd5b610081600480360381019061007c9190610702565b61013b565b005b61008b61021b565b60405161009891906109a4565b60405180910390f35b6100bb60048036038101906100b69190610702565b610273565b6040516100c891906109c6565b60405180910390f35b6100eb60048036038101906100e69190610702565b61031f565b6040516100f89190610a28565b60405180910390f35b610109610343565b6040516101169190610982565b60405180910390f35b610139600480360381019061013491906106c1565b61041c565b005b6001805490508110610182576040517f08c379a0000000000000000000000000000000000000000000000000000000008152600401610179906109e8565b60405180910390fd5b600260003373ffffffffffffffffffffffffffffffffffffffff1673ffffffffffffffffffffffffffffffffffffffff16815260200190815260200160002060009054906101000a900460ff161561020f576040517f08c379a000000000000000000000000000000000000000000000000000000000815260040161020690610a08565b60405180910390fd5b61021881610550565b50565b6060600080548060200260200160405190810160405280929190818152602001828054801561026957602002820191906000526020600020905b815481526020019060010190808311610255575b5050505050905090565b6001818154811061028357600080fd5b90600052602060002001600091509050805461029e90610bf0565b80601f01602080910402602001604051908101604052809291908181526020018280546102ca90610bf0565b80156103175780601f106102ec57610100808354040283529160200191610317565b820191906000526020600020905b8154815290600101906020018083116102fa57829003601f168201915b505050505081565b6000818154811061032f57600080fd5b906000526020600020016000915090505481565b60606001805480602002602001604051908101604052809291908181526020016000905b8282101561041357838290600052602060002001805461038690610bf0565b80601f01602080910402602001604051908101604052809291908181526020018280546103b290610bf0565b80156103ff5780601f106103d4576101008083540402835291602001916103ff565b820191906000526020600020905b8154815290600101906020018083116103e257829003601f168201915b505050505081526020019060010190610367565b50505050905090565b600260003373ffffffffffffffffffffffffffffffffffffffff1673ffffffffffffffffffffffffffffffffffffffff16815260200190815260200160002060009054906101000a900460ff16156104a9576040517f08c379a00000000000000000000000000000000000000000000000000000000081526004016104a090610a08565b60405180910390fd5b60006003826040516104bb919061096b565b9081526020016040518091039020604051806040016040529081600082015481526020016001820160009054906101000a900460ff1615151515815250509050806020015161053f576040517f08c379a0000000000000000000000000000000000000000000000000000000008152600401610536906109e8565b60405180910390fd5b61054c8160000151610550565b5050565b6001600260003373ffffffffffffffffffffffffffffffffffffffff1673ffffffffffffffffffffffffffffffffffffffff16815260200190815260200160002060006101000a81548160ff0219169083151502179055506001600082815481106105e4577f4e487b7100000000000000000000000000000000000000000000000000000000600052603260045260246000fd5b90600052602060002001546105f99190610b4e565b60008281548110610633577f4e487b7100000000000000000000000000000000000000000000000000000000600052603260045260246000fd5b906000526020600020018190555050565b600061065761065284610a74565b610a43565b90508281526020810184848401111561066f57600080fd5b61067a848285610bae565b509392505050565b600082601f83011261069357600080fd5b81356106a3848260208601610644565b91505092915050565b6000813590506106bb81610cc0565b92915050565b6000602082840312156106d357600080fd5b600082013567ffffffffffffffff8111156106ed57600080fd5b6106f984828501610682565b91505092915050565b60006020828403121561071457600080fd5b6000610722848285016106ac565b91505092915050565b6000610737838361082a565b905092915050565b600061074b838361094d565b60208301905092915050565b600061076282610ac4565b61076c8185610aff565b93508360208202850161077e85610aa4565b8060005b858110156107ba578484038952815161079b858261072b565b94506107a683610ae5565b925060208a01995050600181019050610782565b50829750879550505050505092915050565b60006107d782610acf565b6107e18185610b10565b93506107ec83610ab4565b8060005b8381101561081d578151610804888261073f565b975061080f83610af2565b9250506001810190506107f0565b5085935050505092915050565b600061083582610ada565b61083f8185610b21565b935061084f818560208601610bbd565b61085881610caf565b840191505092915050565b600061086e82610ada565b6108788185610b32565b9350610888818560208601610bbd565b61089181610caf565b840191505092915050565b60006108a782610ada565b6108b18185610b43565b93506108c1818560208601610bbd565b80840191505092915050565b60006108da600e83610b32565b91507f496e76616c6964206f7074696f6e0000000000000000000000000000000000006000830152602082019050919050565b600061091a600d83610b32565b91507f416c726561647920766f746564000000000000000000000000000000000000006000830152602082019050919050565b61095681610ba4565b82525050565b61096581610ba4565b82525050565b6000610977828461089c565b915081905092915050565b6000602082019050818103600083015261099c8184610757565b905092915050565b600060208201905081810360008301526109be81846107cc565b905092915050565b600060208201905081810360008301526109e08184610863565b905092915050565b60006020820190508181036000830152610a01816108cd565b9050919050565b60006020820190508181036000830152610a218161090d565b9050919050565b6000602082019050610a3d600083018461095c565b92915050565b6000604051905081810181811067ffffffffffffffff82111715610a6a57610a69610c80565b5b8060405250919050565b600067ffffffffffffffff821115610a8f57610a8e610c80565b5b601f19601f8301169050602081019050919050565b6000819050602082019050919050565b6000819050602082019050919050565b600081519050919050565b600081519050919050565b600081519050919050565b6000602082019050919050565b6000602082019050919050565b600082825260208201905092915050565b600082825260208201905092915050565b600082825260208201905092915050565b600082825260208201905092915050565b600081905092915050565b6000610b5982610ba4565b9150610b6483610ba4565b9250827fffffffffffffffffffffffffffffffffffffffffffffffffffffffffffffffff03821115610b9957610b98610c22565b5b828201905092915050565b6000819050919050565b82818337600083830152505050565b60005b83811015610bdb578082015181840152602081019050610bc0565b83811115610bea576000848401525b50505050565b60006002820490506001821680610c0857607f821691505b60208210811415610c1c57610c1b610c51565b5b50919050565b7f4e487b7100000000000000000000000000000000000000000000000000000000600052601160045260246000fd5b7f4e487b7100000000000000000000000000000000000000000000000000000000600052602260045260246000fd5b7f4e487b7100000000000000000000000000000000000000000000000000000000600052604160045260246000fd5b6000601f19601f8301169050919050565b610cc981610ba4565b8114610cd457600080fd5b5056fea2646970667358221220e4916fa23f02741ad80f26fe2bc7a5a3b68a58f33cdf43d0d4db4b1b711f3a1e64736f6c63430008000033",
  "immutableReferences": {},
  "source": "// SPDX-License-Identifier: GPL-3.0\r\npragma solidity ^0.8.0;\r\n\r\ncontract Voter {\r\n\r\n    struct OptionsPos {\r\n        uint pos;\r\n        bool exists;\r\n    }\r\n\r\n    uint[] public votes;\r\n    string[] public options;\r\n    mapping (address => bool) hasVoted;\r\n    mapping (string => OptionsPos) posOfOption;\r\n\r\n    constructor(string[] memory _options) {\r\n        options = _options;\r\n        votes = new uint[](_options.length);\r\n        \r\n        for (uint i = 0; i < options.length; i++) {\r\n            OptionsPos memory option = OptionsPos(i, true);\r\n            posOfOption[options[i]] = option;\r\n        }\r\n\r\n    }\r\n\r\n    function vote(uint option) public {\r\n        require(option < options.length, \"Invalid option\");\r\n        require(!hasVoted[msg.sender], \"Already voted\");        \r\n        recordVote(option);\r\n    }\r\n\r\n    function vote(string memory option) public {\r\n        require(!hasVoted[msg.sender], \"Already voted\");\r\n        OptionsPos memory optionPos = posOfOption[option];\r\n        require(optionPos.exists, \"Invalid option\");\r\n\r\n        recordVote(optionPos.pos);\r\n    }\r\n\r\n    function stringEqual(string memory a, string memory b) private pure returns (bool) {\r\n        return keccak256(bytes(a)) == keccak256(bytes(b));\r\n    }\r\n\r\n    function recordVote(uint option) private {\r\n        hasVoted[msg.sender] = true;\r\n        votes[option] = votes[option] + 1;\r\n    }\r\n\r\n    function getOptions() public view returns (string[] memory) {\r\n        return options;\r\n    }\r\n\r\n    function getVotes() public view returns (uint[] memory) {\r\n        return votes;\r\n    }\r\n}",
  "sourcePath": "C:\\workspace\\solidity\\project\\contracts\\Voter.sol",
  "compiler": {
    "name": "solc",
    "version": "0.8.0+commit.c7dfd78e.Emscripten.clang"
  },
  "schemaVersion": "3.4.14",
  "updatedAt": "2023-06-08T14:37:48.715Z",
  "devdoc": {
    "kind": "dev",
    "methods": {},
    "version": 1
  },
  "userdoc": {
    "kind": "user",
    "methods": {},
    "version": 1
  }
}